{
  "address": "0x8987B3F9843A8fE516dCDFDeB91Ac84AC528b7b9",
  "abi": [
    {
      "anonymous": false,
      "inputs": [
        {
          "indexed": true,
          "internalType": "address",
          "name": "user",
          "type": "address"
        },
        {
          "indexed": false,
          "internalType": "uint256",
          "name": "timestamp",
          "type": "uint256"
        }
      ],
      "name": "CheckedIn",
      "type": "event"
    },
    {
      "anonymous": false,
      "inputs": [
        {
          "indexed": true,
          "internalType": "address",
          "name": "user",
          "type": "address"
        },
        {
          "indexed": false,
          "internalType": "uint256",
          "name": "score",
          "type": "uint256"
        },
        {
          "indexed": false,
          "internalType": "uint256",
          "name": "newTotalScore",
          "type": "uint256"
        },
        {
          "indexed": false,
          "internalType": "uint256",
          "name": "newHighScore",
          "type": "uint256"
        }
      ],
      "name": "GamePlayed",
      "type": "event"
    },
    {
      "inputs": [],
      "name": "checkIn",
      "outputs": [],
      "stateMutability": "nonpayable",
      "type": "function"
    },
    {
      "inputs": [
        {
          "internalType": "address",
          "name": "userAddress",
          "type": "address"
        }
      ],
      "name": "getUserData",
      "outputs": [
        {
          "internalType": "uint256",
          "name": "lastCheckIn",
          "type": "uint256"
        },
        {
          "internalType": "uint8",
          "name": "attemptsLeft",
          "type": "uint8"
        },
        {
          "internalType": "uint256",
          "name": "totalScore",
          "type": "uint256"
        },
        {
          "internalType": "uint256",
          "name": "highScore",
          "type": "uint256"
        }
      ],
      "stateMutability": "view",
      "type": "function"
    },
    {
      "inputs": [
        {
          "internalType": "uint256",
          "name": "score",
          "type": "uint256"
        }
      ],
      "name": "recordGame",
      "outputs": [],
      "stateMutability": "nonpayable",
      "type": "function"
    },
    {
      "inputs": [
        {
          "internalType": "address",
          "name": "",
          "type": "address"
        }
      ],
      "name": "users",
      "outputs": [
        {
          "internalType": "uint256",
          "name": "lastCheckIn",
          "type": "uint256"
        },
        {
          "internalType": "uint8",
          "name": "attemptsLeft",
          "type": "uint8"
        },
        {
          "internalType": "uint256",
          "name": "totalScore",
          "type": "uint256"
        },
        {
          "internalType": "uint256",
          "name": "highScore",
          "type": "uint256"
        }
      ],
      "stateMutability": "view",
      "type": "function"
    }
  ],
  "transactionHash": "0x1b80ba893d53be44bac98f3819df463d60177ca5244f03756959b17effb09747",
  "args": [],
  "numDeployments": 1,
  "solcInputHash": "c84dfb5f0fe3fb8c371a03ef8b1ae3fb",
  "bytecode": "0x608060405234801561001057600080fd5b50610429806100206000396000f3fe608060405234801561001057600080fd5b506004361061004c5760003560e01c8063183ff08514610051578063a87430ba1461005b578063e54f606e146100ba578063ffc9896b146100cd575b600080fd5b61005961012f565b005b610094610069366004610362565b6000602081905290815260409020805460018201546002830154600390930154919260ff9091169184565b6040805194855260ff909316602085015291830152606082015260800160405180910390f35b6100596100c8366004610392565b6101ff565b6100946100db366004610362565b6001600160a01b03166000908152602081815260409182902082516080810184528154808252600183015460ff16938201849052600283015494820185905260039092015460609091018190529093919291565b336000908152602081905260409020805442906101509062015180906103c1565b81106101a85780825560018201805460ff1916600a17905560405133907fdddb6e14f7f2101397a6526aab95e964de7f1f44ed06aa47a1c9a0e6b99244569061019c9084815260200190565b60405180910390a25050565b600182015460ff166101fb5760405162461bcd60e51b81526020600482015260176024820152764e6f20617474656d707473206c65667420746f6461792160481b60448201526064015b60405180910390fd5b5050565b336000908152602081905260409020805442906102209062015180906103c1565b81106102675760405162461bcd60e51b8152602060048201526016602482015275506c6561736520636865636b20696e2066697273742160501b60448201526064016101f2565b600182015460ff166102b55760405162461bcd60e51b81526020600482015260176024820152764e6f20617474656d707473206c65667420746f6461792160481b60448201526064016101f2565b600182810180546000906102cd90849060ff166103da565b92506101000a81548160ff021916908360ff160217905550828260020160008282546102f991906103c1565b9091555050600382015483111561031257600382018390555b6002820154600383015460408051868152602081019390935282015233907fa99b776cf5025c68da32d25f20ab3b86fc3e832ba6976f31b879627dcfdd448e9060600160405180910390a2505050565b60006020828403121561037457600080fd5b81356001600160a01b038116811461038b57600080fd5b9392505050565b6000602082840312156103a457600080fd5b5035919050565b634e487b7160e01b600052601160045260246000fd5b808201808211156103d4576103d46103ab565b92915050565b60ff82811682821603908111156103d4576103d46103ab56fea2646970667358221220b0e48d4a394afe5e525bd34c298f5119e549ae9bd30f93c44d240bf38b2688f864736f6c63430008140033",
  "devdoc": {
    "kind": "dev",
    "methods": {},
    "version": 1
  },
  "userdoc": {
    "kind": "user",
    "methods": {},
    "version": 1
  },
  "storageLayout": {
    "storage": [
      {
        "astId": 15,
        "contract": "contracts/FlappyMonContract.sol:FlappyMonContract",
        "label": "users",
        "offset": 0,
        "slot": "0",
        "type": "t_mapping(t_address,t_struct(UserData)10_storage)"
      }
    ],
    "types": {
      "t_address": {
        "encoding": "inplace",
        "label": "address",
        "numberOfBytes": "20"
      },
      "t_mapping(t_address,t_struct(UserData)10_storage)": {
        "encoding": "mapping",
        "key": "t_address",
        "label": "mapping(address => struct FlappyMonContract.UserData)",
        "numberOfBytes": "32",
        "value": "t_struct(UserData)10_storage"
      },
      "t_struct(UserData)10_storage": {
        "encoding": "inplace",
        "label": "struct FlappyMonContract.UserData",
        "members": [
          {
            "astId": 3,
            "contract": "contracts/FlappyMonContract.sol:FlappyMonContract",
            "label": "lastCheckIn",
            "offset": 0,
            "slot": "0",
            "type": "t_uint256"
          },
          {
            "astId": 5,
            "contract": "contracts/FlappyMonContract.sol:FlappyMonContract",
            "label": "attemptsLeft",
            "offset": 0,
            "slot": "1",
            "type": "t_uint8"
          },
          {
            "astId": 7,
            "contract": "contracts/FlappyMonContract.sol:FlappyMonContract",
            "label": "totalScore",
            "offset": 0,
            "slot": "2",
            "type": "t_uint256"
          },
          {
            "astId": 9,
            "contract": "contracts/FlappyMonContract.sol:FlappyMonContract",
            "label": "highScore",
            "offset": 0,
            "slot": "3",
            "type": "t_uint256"
          }
        ],
        "numberOfBytes": "128"
      },
      "t_uint256": {
        "encoding": "inplace",
        "label": "uint256",
        "numberOfBytes": "32"
      },
      "t_uint8": {
        "encoding": "inplace",
        "label": "uint8",
        "numberOfBytes": "1"
      }
    }
  }
}